{
  "_format": "hh-sol-artifact-1",
  "contractName": "WavePortal",
  "sourceName": "contracts/WavePortal.sol",
  "abi": [
    {
      "inputs": [],
      "stateMutability": "nonpayable",
      "type": "constructor"
    },
    {
      "anonymous": false,
      "inputs": [
        {
          "indexed": true,
          "internalType": "address",
          "name": "from",
          "type": "address"
        },
        {
          "indexed": false,
          "internalType": "uint256",
          "name": "timestamp",
          "type": "uint256"
        },
        {
          "indexed": false,
          "internalType": "string",
          "name": "message",
          "type": "string"
        }
      ],
      "name": "NewWave",
      "type": "event"
    },
    {
      "inputs": [],
      "name": "getAllWaves",
      "outputs": [
        {
          "components": [
            {
              "internalType": "address",
              "name": "waver",
              "type": "address"
            },
            {
              "internalType": "string",
              "name": "message",
              "type": "string"
            },
            {
              "internalType": "uint256",
              "name": "timestamp",
              "type": "uint256"
            }
          ],
          "internalType": "struct WavePortal.Wave[]",
          "name": "",
          "type": "tuple[]"
        }
      ],
      "stateMutability": "view",
      "type": "function"
    },
    {
      "inputs": [],
      "name": "getTotalWaves",
      "outputs": [
        {
          "internalType": "uint256",
          "name": "",
          "type": "uint256"
        }
      ],
      "stateMutability": "view",
      "type": "function"
    },
    {
      "inputs": [
        {
          "internalType": "address",
          "name": "_userAddress",
          "type": "address"
        }
      ],
      "name": "getUserWaveCount",
      "outputs": [
        {
          "internalType": "uint256",
          "name": "",
          "type": "uint256"
        }
      ],
      "stateMutability": "view",
      "type": "function"
    },
    {
      "inputs": [
        {
          "internalType": "string",
          "name": "_message",
          "type": "string"
        }
      ],
      "name": "wave",
      "outputs": [],
      "stateMutability": "nonpayable",
      "type": "function"
    }
  ],
  "bytecode": "0x60806040523480156200001157600080fd5b50620000416040518060600160405280602581526020016200109d602591396200004760201b6200050b1760201c565b620001db565b620000e7816040516024016200005e919062000154565b6040516020818303038152906040527f41304fac000000000000000000000000000000000000000000000000000000007bffffffffffffffffffffffffffffffffffffffffffffffffffffffff19166020820180517bffffffffffffffffffffffffffffffffffffffffffffffffffffffff8381831617835250505050620000ea60201b60201c565b50565b60008151905060006a636f6e736f6c652e6c6f679050602083016000808483855afa5050505050565b6000620001208262000178565b6200012c818562000183565b93506200013e81856020860162000194565b6200014981620001ca565b840191505092915050565b6000602082019050818103600083015262000170818462000113565b905092915050565b600081519050919050565b600082825260208201905092915050565b60005b83811015620001b457808201518184015260208101905062000197565b83811115620001c4576000848401525b50505050565b6000601f19601f8301169050919050565b610eb280620001eb6000396000f3fe608060405234801561001057600080fd5b506004361061004c5760003560e01c8063359ff91e14610051578063449d46c0146100815780639a2cdc081461009d578063bd43a908146100bb575b600080fd5b61006b600480360381019061006691906108c7565b6100d9565b6040516100789190610baf565b60405180910390f35b61009b600480360381019061009691906108f0565b6101a1565b005b6100a561036f565b6040516100b29190610baf565b60405180910390f35b6100c36103ba565b6040516100d09190610ab8565b60405180910390f35b600061015a6040518060400160405280601681526020017f2573206861732077617665642025642074696d6573210000000000000000000081525083600160008673ffffffffffffffffffffffffffffffffffffffff1673ffffffffffffffffffffffffffffffffffffffff168152602001908152602001600020546105a4565b600160008373ffffffffffffffffffffffffffffffffffffffff1673ffffffffffffffffffffffffffffffffffffffff168152602001908152602001600020549050919050565b60016000808282546101b39190610cc1565b9250508190555060018060003373ffffffffffffffffffffffffffffffffffffffff1673ffffffffffffffffffffffffffffffffffffffff16815260200190815260200160002060008282546102099190610cc1565b925050819055506102506040518060400160405280601681526020017f257320776176656420772f206d657373616765202573000000000000000000008152503383610643565b600260405180606001604052803373ffffffffffffffffffffffffffffffffffffffff16815260200183815260200142815250908060018154018082558091505060019003906000526020600020906003020160009091909190915060008201518160000160006101000a81548173ffffffffffffffffffffffffffffffffffffffff021916908373ffffffffffffffffffffffffffffffffffffffff160217905550602082015181600101908051906020019061030f9291906107a7565b506040820151816002015550503373ffffffffffffffffffffffffffffffffffffffff167f5f7e16dc676677766a70e9c5628aa6c54ddb8b6e5188e2ae1e1f17f1ffbea7164283604051610364929190610bca565b60405180910390a250565b60006103b26040518060400160405280601781526020017f5765206861766520256420746f74616c207761766573210000000000000000008152506000546106e2565b600054905090565b60606002805480602002602001604051908101604052809291908181526020016000905b8282101561050257838290600052602060002090600302016040518060600160405290816000820160009054906101000a900473ffffffffffffffffffffffffffffffffffffffff1673ffffffffffffffffffffffffffffffffffffffff1673ffffffffffffffffffffffffffffffffffffffff16815260200160018201805461046790610d95565b80601f016020809104026020016040519081016040528092919081815260200182805461049390610d95565b80156104e05780601f106104b5576101008083540402835291602001916104e0565b820191906000526020600020905b8154815290600101906020018083116104c357829003601f168201915b50505050508152602001600282015481525050815260200190600101906103de565b50505050905090565b6105a18160405160240161051f9190610ada565b6040516020818303038152906040527f41304fac000000000000000000000000000000000000000000000000000000007bffffffffffffffffffffffffffffffffffffffffffffffffffffffff19166020820180517bffffffffffffffffffffffffffffffffffffffffffffffffffffffff838183161783525050505061077e565b50565b61063e8383836040516024016105bc93929190610b41565b6040516020818303038152906040527f07c81217000000000000000000000000000000000000000000000000000000007bffffffffffffffffffffffffffffffffffffffffffffffffffffffff19166020820180517bffffffffffffffffffffffffffffffffffffffffffffffffffffffff838183161783525050505061077e565b505050565b6106dd83838360405160240161065b93929190610afc565b6040516020818303038152906040527fe0e9ad4f000000000000000000000000000000000000000000000000000000007bffffffffffffffffffffffffffffffffffffffffffffffffffffffff19166020820180517bffffffffffffffffffffffffffffffffffffffffffffffffffffffff838183161783525050505061077e565b505050565b61077a82826040516024016106f8929190610b7f565b6040516020818303038152906040527f9710a9d0000000000000000000000000000000000000000000000000000000007bffffffffffffffffffffffffffffffffffffffffffffffffffffffff19166020820180517bffffffffffffffffffffffffffffffffffffffffffffffffffffffff838183161783525050505061077e565b5050565b60008151905060006a636f6e736f6c652e6c6f679050602083016000808483855afa5050505050565b8280546107b390610d95565b90600052602060002090601f0160209004810192826107d5576000855561081c565b82601f106107ee57805160ff191683800117855561081c565b8280016001018555821561081c579182015b8281111561081b578251825591602001919060010190610800565b5b509050610829919061082d565b5090565b5b8082111561084657600081600090555060010161082e565b5090565b600061085d61085884610c2b565b610bfa565b90508281526020810184848401111561087557600080fd5b610880848285610d53565b509392505050565b60008135905061089781610e65565b92915050565b600082601f8301126108ae57600080fd5b81356108be84826020860161084a565b91505092915050565b6000602082840312156108d957600080fd5b60006108e784828501610888565b91505092915050565b60006020828403121561090257600080fd5b600082013567ffffffffffffffff81111561091c57600080fd5b6109288482850161089d565b91505092915050565b600061093d8383610a4a565b905092915050565b61094e81610d17565b82525050565b61095d81610d17565b82525050565b600061096e82610c6b565b6109788185610c8e565b93508360208202850161098a85610c5b565b8060005b858110156109c657848403895281516109a78582610931565b94506109b283610c81565b925060208a0199505060018101905061098e565b50829750879550505050505092915050565b60006109e382610c76565b6109ed8185610c9f565b93506109fd818560208601610d62565b610a0681610e54565b840191505092915050565b6000610a1c82610c76565b610a268185610cb0565b9350610a36818560208601610d62565b610a3f81610e54565b840191505092915050565b6000606083016000830151610a626000860182610945565b5060208301518482036020860152610a7a82826109d8565b9150506040830151610a8f6040860182610a9a565b508091505092915050565b610aa381610d49565b82525050565b610ab281610d49565b82525050565b60006020820190508181036000830152610ad28184610963565b905092915050565b60006020820190508181036000830152610af48184610a11565b905092915050565b60006060820190508181036000830152610b168186610a11565b9050610b256020830185610954565b8181036040830152610b378184610a11565b9050949350505050565b60006060820190508181036000830152610b5b8186610a11565b9050610b6a6020830185610954565b610b776040830184610aa9565b949350505050565b60006040820190508181036000830152610b998185610a11565b9050610ba86020830184610aa9565b9392505050565b6000602082019050610bc46000830184610aa9565b92915050565b6000604082019050610bdf6000830185610aa9565b8181036020830152610bf18184610a11565b90509392505050565b6000604051905081810181811067ffffffffffffffff82111715610c2157610c20610e25565b5b8060405250919050565b600067ffffffffffffffff821115610c4657610c45610e25565b5b601f19601f8301169050602081019050919050565b6000819050602082019050919050565b600081519050919050565b600081519050919050565b6000602082019050919050565b600082825260208201905092915050565b600082825260208201905092915050565b600082825260208201905092915050565b6000610ccc82610d49565b9150610cd783610d49565b9250827fffffffffffffffffffffffffffffffffffffffffffffffffffffffffffffffff03821115610d0c57610d0b610dc7565b5b828201905092915050565b6000610d2282610d29565b9050919050565b600073ffffffffffffffffffffffffffffffffffffffff82169050919050565b6000819050919050565b82818337600083830152505050565b60005b83811015610d80578082015181840152602081019050610d65565b83811115610d8f576000848401525b50505050565b60006002820490506001821680610dad57607f821691505b60208210811415610dc157610dc0610df6565b5b50919050565b7f4e487b7100000000000000000000000000000000000000000000000000000000600052601160045260246000fd5b7f4e487b7100000000000000000000000000000000000000000000000000000000600052602260045260246000fd5b7f4e487b7100000000000000000000000000000000000000000000000000000000600052604160045260246000fd5b6000601f19601f8301169050919050565b610e6e81610d17565b8114610e7957600080fd5b5056fea26469706673582212205b3b22187cfa2b2e494fb12087a103360e320a9db93e8dfe1f4e2b439c50c74a64736f6c63430008000033596f20796f2c204920616d206120636f6e747261637420616e64204920616d20736d617274",
  "linkReferences": {},
  "deployedLinkReferences": {}
}