{
  "_format": "hh-sol-artifact-1",
  "contractName": "WavePortal",
  "sourceName": "contracts/WavePortal.sol",
  "abi": [
    {
      "inputs": [],
      "stateMutability": "payable",
      "type": "constructor"
    },
    {
      "anonymous": false,
      "inputs": [
        {
          "indexed": true,
          "internalType": "address",
          "name": "from",
          "type": "address"
        },
        {
          "indexed": false,
          "internalType": "uint256",
          "name": "timestamp",
          "type": "uint256"
        },
        {
          "indexed": false,
          "internalType": "string",
          "name": "message",
          "type": "string"
        }
      ],
      "name": "NewWave",
      "type": "event"
    },
    {
      "inputs": [],
      "name": "getAllWaves",
      "outputs": [
        {
          "components": [
            {
              "internalType": "address",
              "name": "waver",
              "type": "address"
            },
            {
              "internalType": "string",
              "name": "message",
              "type": "string"
            },
            {
              "internalType": "uint256",
              "name": "timestamp",
              "type": "uint256"
            }
          ],
          "internalType": "struct WavePortal.Wave[]",
          "name": "",
          "type": "tuple[]"
        }
      ],
      "stateMutability": "view",
      "type": "function"
    },
    {
      "inputs": [],
      "name": "getTotalWaves",
      "outputs": [
        {
          "internalType": "uint256",
          "name": "",
          "type": "uint256"
        }
      ],
      "stateMutability": "view",
      "type": "function"
    },
    {
      "inputs": [
        {
          "internalType": "address",
          "name": "_userAddress",
          "type": "address"
        }
      ],
      "name": "getUserWaveCount",
      "outputs": [
        {
          "internalType": "uint256",
          "name": "",
          "type": "uint256"
        }
      ],
      "stateMutability": "view",
      "type": "function"
    },
    {
      "inputs": [
        {
          "internalType": "string",
          "name": "_message",
          "type": "string"
        }
      ],
      "name": "wave",
      "outputs": [],
      "stateMutability": "nonpayable",
      "type": "function"
    }
  ],
  "bytecode": "0x60806040526200004f6040518060400160405280601981526020017f57652068617665206265656e20636f6e737472756374656421000000000000008152506200005560201b620006071760201c565b620001e9565b620000f5816040516024016200006c919062000162565b6040516020818303038152906040527f41304fac000000000000000000000000000000000000000000000000000000007bffffffffffffffffffffffffffffffffffffffffffffffffffffffff19166020820180517bffffffffffffffffffffffffffffffffffffffffffffffffffffffff8381831617835250505050620000f860201b60201c565b50565b60008151905060006a636f6e736f6c652e6c6f679050602083016000808483855afa5050505050565b60006200012e8262000186565b6200013a818562000191565b93506200014c818560208601620001a2565b6200015781620001d8565b840191505092915050565b600060208201905081810360008301526200017e818462000121565b905092915050565b600081519050919050565b600082825260208201905092915050565b60005b83811015620001c2578082015181840152602081019050620001a5565b83811115620001d2576000848401525b50505050565b6000601f19601f8301169050919050565b6110f480620001f96000396000f3fe608060405234801561001057600080fd5b506004361061004c5760003560e01c8063359ff91e14610051578063449d46c0146100815780639a2cdc081461009d578063bd43a908146100bb575b600080fd5b61006b600480360381019061006691906109c3565b6100d9565b6040516100789190610de6565b60405180910390f35b61009b600480360381019061009691906109ec565b6101a1565b005b6100a561046b565b6040516100b29190610de6565b60405180910390f35b6100c36104b6565b6040516100d09190610caf565b60405180910390f35b600061015a6040518060400160405280601681526020017f2573206861732077617665642025642074696d6573210000000000000000000081525083600160008673ffffffffffffffffffffffffffffffffffffffff1673ffffffffffffffffffffffffffffffffffffffff168152602001908152602001600020546106a0565b600160008373ffffffffffffffffffffffffffffffffffffffff1673ffffffffffffffffffffffffffffffffffffffff168152602001908152602001600020549050919050565b60016000808282546101b39190610f03565b9250508190555060018060003373ffffffffffffffffffffffffffffffffffffffff1673ffffffffffffffffffffffffffffffffffffffff16815260200190815260200160002060008282546102099190610f03565b925050819055506102506040518060400160405280601781526020017f257320776176656420772f206d6573736167652025733a000000000000000000815250338361073f565b600260405180606001604052803373ffffffffffffffffffffffffffffffffffffffff16815260200183815260200142815250908060018154018082558091505060019003906000526020600020906003020160009091909190915060008201518160000160006101000a81548173ffffffffffffffffffffffffffffffffffffffff021916908373ffffffffffffffffffffffffffffffffffffffff160217905550602082015181600101908051906020019061030f9291906108a3565b506040820151816002015550503373ffffffffffffffffffffffffffffffffffffffff167f5f7e16dc676677766a70e9c5628aa6c54ddb8b6e5188e2ae1e1f17f1ffbea7164283604051610364929190610e01565b60405180910390a26000655af3107a40009050478111156103ba576040517f08c379a00000000000000000000000000000000000000000000000000000000081526004016103b190610da6565b60405180910390fd5b60003373ffffffffffffffffffffffffffffffffffffffff16826040516103e090610c9a565b60006040518083038185875af1925050503d806000811461041d576040519150601f19603f3d011682016040523d82523d6000602084013e610422565b606091505b5050905080610466576040517f08c379a000000000000000000000000000000000000000000000000000000000815260040161045d90610dc6565b60405180910390fd5b505050565b60006104ae6040518060400160405280601781526020017f5765206861766520256420746f74616c207761766573210000000000000000008152506000546107de565b600054905090565b60606002805480602002602001604051908101604052809291908181526020016000905b828210156105fe57838290600052602060002090600302016040518060600160405290816000820160009054906101000a900473ffffffffffffffffffffffffffffffffffffffff1673ffffffffffffffffffffffffffffffffffffffff1673ffffffffffffffffffffffffffffffffffffffff16815260200160018201805461056390610fd7565b80601f016020809104026020016040519081016040528092919081815260200182805461058f90610fd7565b80156105dc5780601f106105b1576101008083540402835291602001916105dc565b820191906000526020600020905b8154815290600101906020018083116105bf57829003601f168201915b50505050508152602001600282015481525050815260200190600101906104da565b50505050905090565b61069d8160405160240161061b9190610cd1565b6040516020818303038152906040527f41304fac000000000000000000000000000000000000000000000000000000007bffffffffffffffffffffffffffffffffffffffffffffffffffffffff19166020820180517bffffffffffffffffffffffffffffffffffffffffffffffffffffffff838183161783525050505061087a565b50565b61073a8383836040516024016106b893929190610d38565b6040516020818303038152906040527f07c81217000000000000000000000000000000000000000000000000000000007bffffffffffffffffffffffffffffffffffffffffffffffffffffffff19166020820180517bffffffffffffffffffffffffffffffffffffffffffffffffffffffff838183161783525050505061087a565b505050565b6107d983838360405160240161075793929190610cf3565b6040516020818303038152906040527fe0e9ad4f000000000000000000000000000000000000000000000000000000007bffffffffffffffffffffffffffffffffffffffffffffffffffffffff19166020820180517bffffffffffffffffffffffffffffffffffffffffffffffffffffffff838183161783525050505061087a565b505050565b61087682826040516024016107f4929190610d76565b6040516020818303038152906040527f9710a9d0000000000000000000000000000000000000000000000000000000007bffffffffffffffffffffffffffffffffffffffffffffffffffffffff19166020820180517bffffffffffffffffffffffffffffffffffffffffffffffffffffffff838183161783525050505061087a565b5050565b60008151905060006a636f6e736f6c652e6c6f679050602083016000808483855afa5050505050565b8280546108af90610fd7565b90600052602060002090601f0160209004810192826108d15760008555610918565b82601f106108ea57805160ff1916838001178555610918565b82800160010185558215610918579182015b828111156109175782518255916020019190600101906108fc565b5b5090506109259190610929565b5090565b5b8082111561094257600081600090555060010161092a565b5090565b600061095961095484610e62565b610e31565b90508281526020810184848401111561097157600080fd5b61097c848285610f95565b509392505050565b600081359050610993816110a7565b92915050565b600082601f8301126109aa57600080fd5b81356109ba848260208601610946565b91505092915050565b6000602082840312156109d557600080fd5b60006109e384828501610984565b91505092915050565b6000602082840312156109fe57600080fd5b600082013567ffffffffffffffff811115610a1857600080fd5b610a2484828501610999565b91505092915050565b6000610a398383610c2c565b905092915050565b610a4a81610f59565b82525050565b610a5981610f59565b82525050565b6000610a6a82610ea2565b610a748185610ec5565b935083602082028501610a8685610e92565b8060005b85811015610ac25784840389528151610aa38582610a2d565b9450610aae83610eb8565b925060208a01995050600181019050610a8a565b50829750879550505050505092915050565b6000610adf82610ead565b610ae98185610ee1565b9350610af9818560208601610fa4565b610b0281611096565b840191505092915050565b6000610b1882610ead565b610b228185610ef2565b9350610b32818560208601610fa4565b610b3b81611096565b840191505092915050565b6000610b53603483610ef2565b91507f547279696e6720746f207769746864726177206d6f7265206d6f6e657920746860008301527f616e2074686520736f6e7472616374206861732e0000000000000000000000006020830152604082019050919050565b6000610bb9602783610ef2565b91507f4661696c656420746f207769746864726177206d6f6e65792066726f6d20636f60008301527f6e74726163742e000000000000000000000000000000000000000000000000006020830152604082019050919050565b6000610c1f600083610ed6565b9150600082019050919050565b6000606083016000830151610c446000860182610a41565b5060208301518482036020860152610c5c8282610ad4565b9150506040830151610c716040860182610c7c565b508091505092915050565b610c8581610f8b565b82525050565b610c9481610f8b565b82525050565b6000610ca582610c12565b9150819050919050565b60006020820190508181036000830152610cc98184610a5f565b905092915050565b60006020820190508181036000830152610ceb8184610b0d565b905092915050565b60006060820190508181036000830152610d0d8186610b0d565b9050610d1c6020830185610a50565b8181036040830152610d2e8184610b0d565b9050949350505050565b60006060820190508181036000830152610d528186610b0d565b9050610d616020830185610a50565b610d6e6040830184610c8b565b949350505050565b60006040820190508181036000830152610d908185610b0d565b9050610d9f6020830184610c8b565b9392505050565b60006020820190508181036000830152610dbf81610b46565b9050919050565b60006020820190508181036000830152610ddf81610bac565b9050919050565b6000602082019050610dfb6000830184610c8b565b92915050565b6000604082019050610e166000830185610c8b565b8181036020830152610e288184610b0d565b90509392505050565b6000604051905081810181811067ffffffffffffffff82111715610e5857610e57611067565b5b8060405250919050565b600067ffffffffffffffff821115610e7d57610e7c611067565b5b601f19601f8301169050602081019050919050565b6000819050602082019050919050565b600081519050919050565b600081519050919050565b6000602082019050919050565b600082825260208201905092915050565b600081905092915050565b600082825260208201905092915050565b600082825260208201905092915050565b6000610f0e82610f8b565b9150610f1983610f8b565b9250827fffffffffffffffffffffffffffffffffffffffffffffffffffffffffffffffff03821115610f4e57610f4d611009565b5b828201905092915050565b6000610f6482610f6b565b9050919050565b600073ffffffffffffffffffffffffffffffffffffffff82169050919050565b6000819050919050565b82818337600083830152505050565b60005b83811015610fc2578082015181840152602081019050610fa7565b83811115610fd1576000848401525b50505050565b60006002820490506001821680610fef57607f821691505b6020821081141561100357611002611038565b5b50919050565b7f4e487b7100000000000000000000000000000000000000000000000000000000600052601160045260246000fd5b7f4e487b7100000000000000000000000000000000000000000000000000000000600052602260045260246000fd5b7f4e487b7100000000000000000000000000000000000000000000000000000000600052604160045260246000fd5b6000601f19601f8301169050919050565b6110b081610f59565b81146110bb57600080fd5b5056fea2646970667358221220d7578f7133e2ec4f5fd3db3dfff3828a4fe50a4022bc41b1a02bb4049fc37c8264736f6c63430008000033",
  "linkReferences": {},
  "deployedLinkReferences": {}
}