{
  "_format": "hh-sol-artifact-1",
  "contractName": "WavePortal",
  "sourceName": "contracts/WavePortal.sol",
  "abi": [
    {
      "inputs": [],
      "stateMutability": "payable",
      "type": "constructor"
    },
    {
      "anonymous": false,
      "inputs": [
        {
          "indexed": true,
          "internalType": "address",
          "name": "from",
          "type": "address"
        },
        {
          "indexed": false,
          "internalType": "uint256",
          "name": "timestamp",
          "type": "uint256"
        },
        {
          "indexed": false,
          "internalType": "string",
          "name": "message",
          "type": "string"
        }
      ],
      "name": "NewWave",
      "type": "event"
    },
    {
      "inputs": [],
      "name": "getAllWaves",
      "outputs": [
        {
          "components": [
            {
              "internalType": "address",
              "name": "waver",
              "type": "address"
            },
            {
              "internalType": "string",
              "name": "message",
              "type": "string"
            },
            {
              "internalType": "uint256",
              "name": "timestamp",
              "type": "uint256"
            }
          ],
          "internalType": "struct WavePortal.Wave[]",
          "name": "",
          "type": "tuple[]"
        }
      ],
      "stateMutability": "view",
      "type": "function"
    },
    {
      "inputs": [],
      "name": "getTotalWaves",
      "outputs": [
        {
          "internalType": "uint256",
          "name": "",
          "type": "uint256"
        }
      ],
      "stateMutability": "view",
      "type": "function"
    },
    {
      "inputs": [
        {
          "internalType": "address",
          "name": "_userAddress",
          "type": "address"
        }
      ],
      "name": "getUserWaveCount",
      "outputs": [
        {
          "internalType": "uint256",
          "name": "",
          "type": "uint256"
        }
      ],
      "stateMutability": "view",
      "type": "function"
    },
    {
      "inputs": [
        {
          "internalType": "address",
          "name": "",
          "type": "address"
        }
      ],
      "name": "lastWavedAt",
      "outputs": [
        {
          "internalType": "uint256",
          "name": "",
          "type": "uint256"
        }
      ],
      "stateMutability": "view",
      "type": "function"
    },
    {
      "inputs": [
        {
          "internalType": "string",
          "name": "_message",
          "type": "string"
        }
      ],
      "name": "wave",
      "outputs": [],
      "stateMutability": "nonpayable",
      "type": "function"
    }
  ],
  "bytecode": "0x60806040526200004f6040518060400160405280601981526020017f57652068617665206265656e20636f6e737472756374656421000000000000008152506200007760201b620006e21760201c565b606444426200005f9190620001c4565b6200006b919062000261565b60018190555062000308565b62000117816040516024016200008e919062000184565b6040516020818303038152906040527f41304fac000000000000000000000000000000000000000000000000000000007bffffffffffffffffffffffffffffffffffffffffffffffffffffffff19166020820180517bffffffffffffffffffffffffffffffffffffffffffffffffffffffff83818316178352505050506200011a60201b60201c565b50565b60008151905060006a636f6e736f6c652e6c6f679050602083016000808483855afa5050505050565b60006200015082620001a8565b6200015c8185620001b3565b93506200016e8185602086016200022b565b6200017981620002f7565b840191505092915050565b60006020820190508181036000830152620001a0818462000143565b905092915050565b600081519050919050565b600082825260208201905092915050565b6000620001d18262000221565b9150620001de8362000221565b9250827fffffffffffffffffffffffffffffffffffffffffffffffffffffffffffffffff0382111562000216576200021562000299565b5b828201905092915050565b6000819050919050565b60005b838110156200024b5780820151818401526020810190506200022e565b838111156200025b576000848401525b50505050565b60006200026e8262000221565b91506200027b8362000221565b9250826200028e576200028d620002c8565b5b828206905092915050565b7f4e487b7100000000000000000000000000000000000000000000000000000000600052601160045260246000fd5b7f4e487b7100000000000000000000000000000000000000000000000000000000600052601260045260246000fd5b6000601f19601f8301169050919050565b6111b280620003186000396000f3fe608060405234801561001057600080fd5b50600436106100575760003560e01c8063359ff91e1461005c578063449d46c01461008c5780639a2cdc08146100a8578063a42a4663146100c6578063bd43a908146100f6575b600080fd5b610076600480360381019061007191906109ff565b610114565b6040516100839190610e44565b60405180910390f35b6100a660048036038101906100a19190610a28565b61015d565b005b6100b0610570565b6040516100bd9190610e44565b60405180910390f35b6100e060048036038101906100db91906109ff565b610579565b6040516100ed9190610e44565b60405180910390f35b6100fe610591565b60405161010b9190610d2b565b60405180910390f35b6000600260008373ffffffffffffffffffffffffffffffffffffffff1673ffffffffffffffffffffffffffffffffffffffff168152602001908152602001600020549050919050565b42610384600360003373ffffffffffffffffffffffffffffffffffffffff1673ffffffffffffffffffffffffffffffffffffffff168152602001908152602001600020546101ab9190610f61565b106101eb576040517f08c379a00000000000000000000000000000000000000000000000000000000081526004016101e290610e24565b60405180910390fd5b42600360003373ffffffffffffffffffffffffffffffffffffffff1673ffffffffffffffffffffffffffffffffffffffff1681526020019081526020016000208190555060016000808282546102419190610f61565b925050819055506001600260003373ffffffffffffffffffffffffffffffffffffffff1673ffffffffffffffffffffffffffffffffffffffff16815260200190815260200160002060008282546102989190610f61565b925050819055506102df6040518060400160405280601781526020017f257320776176656420772f206d6573736167652025733a000000000000000000815250338361077b565b600460405180606001604052803373ffffffffffffffffffffffffffffffffffffffff16815260200183815260200142815250908060018154018082558091505060019003906000526020600020906003020160009091909190915060008201518160000160006101000a81548173ffffffffffffffffffffffffffffffffffffffff021916908373ffffffffffffffffffffffffffffffffffffffff160217905550602082015181600101908051906020019061039e9291906108df565b50604082015181600201555050606460015444426103bc9190610f61565b6103c69190610f61565b6103d09190611067565b6001819055506032600154101561051d576104206040518060400160405280600781526020017f257320776f6e21000000000000000000000000000000000000000000000000008152503361081a565b6000655af3107a400090504781111561046e576040517f08c379a000000000000000000000000000000000000000000000000000000000815260040161046590610de4565b60405180910390fd5b60003373ffffffffffffffffffffffffffffffffffffffff168260405161049490610d16565b60006040518083038185875af1925050503d80600081146104d1576040519150601f19603f3d011682016040523d82523d6000602084013e6104d6565b606091505b505090508061051a576040517f08c379a000000000000000000000000000000000000000000000000000000000815260040161051190610e04565b60405180910390fd5b50505b3373ffffffffffffffffffffffffffffffffffffffff167f5f7e16dc676677766a70e9c5628aa6c54ddb8b6e5188e2ae1e1f17f1ffbea7164283604051610565929190610e5f565b60405180910390a250565b60008054905090565b60036020528060005260406000206000915090505481565b60606004805480602002602001604051908101604052809291908181526020016000905b828210156106d957838290600052602060002090600302016040518060600160405290816000820160009054906101000a900473ffffffffffffffffffffffffffffffffffffffff1673ffffffffffffffffffffffffffffffffffffffff1673ffffffffffffffffffffffffffffffffffffffff16815260200160018201805461063e90611035565b80601f016020809104026020016040519081016040528092919081815260200182805461066a90611035565b80156106b75780601f1061068c576101008083540402835291602001916106b7565b820191906000526020600020905b81548152906001019060200180831161069a57829003601f168201915b50505050508152602001600282015481525050815260200190600101906105b5565b50505050905090565b610778816040516024016106f69190610d4d565b6040516020818303038152906040527f41304fac000000000000000000000000000000000000000000000000000000007bffffffffffffffffffffffffffffffffffffffffffffffffffffffff19166020820180517bffffffffffffffffffffffffffffffffffffffffffffffffffffffff83818316178352505050506108b6565b50565b61081583838360405160240161079393929190610d9f565b6040516020818303038152906040527fe0e9ad4f000000000000000000000000000000000000000000000000000000007bffffffffffffffffffffffffffffffffffffffffffffffffffffffff19166020820180517bffffffffffffffffffffffffffffffffffffffffffffffffffffffff83818316178352505050506108b6565b505050565b6108b28282604051602401610830929190610d6f565b6040516020818303038152906040527f319af333000000000000000000000000000000000000000000000000000000007bffffffffffffffffffffffffffffffffffffffffffffffffffffffff19166020820180517bffffffffffffffffffffffffffffffffffffffffffffffffffffffff83818316178352505050506108b6565b5050565b60008151905060006a636f6e736f6c652e6c6f679050602083016000808483855afa5050505050565b8280546108eb90611035565b90600052602060002090601f01602090048101928261090d5760008555610954565b82601f1061092657805160ff1916838001178555610954565b82800160010185558215610954579182015b82811115610953578251825591602001919060010190610938565b5b5090506109619190610965565b5090565b5b8082111561097e576000816000905550600101610966565b5090565b600061099561099084610ec0565b610e8f565b9050828152602081018484840111156109ad57600080fd5b6109b8848285610ff3565b509392505050565b6000813590506109cf81611165565b92915050565b600082601f8301126109e657600080fd5b81356109f6848260208601610982565b91505092915050565b600060208284031215610a1157600080fd5b6000610a1f848285016109c0565b91505092915050565b600060208284031215610a3a57600080fd5b600082013567ffffffffffffffff811115610a5457600080fd5b610a60848285016109d5565b91505092915050565b6000610a758383610ca8565b905092915050565b610a8681610fb7565b82525050565b610a9581610fb7565b82525050565b6000610aa682610f00565b610ab08185610f23565b935083602082028501610ac285610ef0565b8060005b85811015610afe5784840389528151610adf8582610a69565b9450610aea83610f16565b925060208a01995050600181019050610ac6565b50829750879550505050505092915050565b6000610b1b82610f0b565b610b258185610f3f565b9350610b35818560208601611002565b610b3e81611154565b840191505092915050565b6000610b5482610f0b565b610b5e8185610f50565b9350610b6e818560208601611002565b610b7781611154565b840191505092915050565b6000610b8f603483610f50565b91507f547279696e6720746f207769746864726177206d6f7265206d6f6e657920746860008301527f616e2074686520736f6e7472616374206861732e0000000000000000000000006020830152604082019050919050565b6000610bf5602783610f50565b91507f4661696c656420746f207769746864726177206d6f6e65792066726f6d20636f60008301527f6e74726163742e000000000000000000000000000000000000000000000000006020830152604082019050919050565b6000610c5b600083610f34565b9150600082019050919050565b6000610c75600f83610f50565b91507f57616974203135206d696e7574657300000000000000000000000000000000006000830152602082019050919050565b6000606083016000830151610cc06000860182610a7d565b5060208301518482036020860152610cd88282610b10565b9150506040830151610ced6040860182610cf8565b508091505092915050565b610d0181610fe9565b82525050565b610d1081610fe9565b82525050565b6000610d2182610c4e565b9150819050919050565b60006020820190508181036000830152610d458184610a9b565b905092915050565b60006020820190508181036000830152610d678184610b49565b905092915050565b60006040820190508181036000830152610d898185610b49565b9050610d986020830184610a8c565b9392505050565b60006060820190508181036000830152610db98186610b49565b9050610dc86020830185610a8c565b8181036040830152610dda8184610b49565b9050949350505050565b60006020820190508181036000830152610dfd81610b82565b9050919050565b60006020820190508181036000830152610e1d81610be8565b9050919050565b60006020820190508181036000830152610e3d81610c68565b9050919050565b6000602082019050610e596000830184610d07565b92915050565b6000604082019050610e746000830185610d07565b8181036020830152610e868184610b49565b90509392505050565b6000604051905081810181811067ffffffffffffffff82111715610eb657610eb5611125565b5b8060405250919050565b600067ffffffffffffffff821115610edb57610eda611125565b5b601f19601f8301169050602081019050919050565b6000819050602082019050919050565b600081519050919050565b600081519050919050565b6000602082019050919050565b600082825260208201905092915050565b600081905092915050565b600082825260208201905092915050565b600082825260208201905092915050565b6000610f6c82610fe9565b9150610f7783610fe9565b9250827fffffffffffffffffffffffffffffffffffffffffffffffffffffffffffffffff03821115610fac57610fab611098565b5b828201905092915050565b6000610fc282610fc9565b9050919050565b600073ffffffffffffffffffffffffffffffffffffffff82169050919050565b6000819050919050565b82818337600083830152505050565b60005b83811015611020578082015181840152602081019050611005565b8381111561102f576000848401525b50505050565b6000600282049050600182168061104d57607f821691505b60208210811415611061576110606110f6565b5b50919050565b600061107282610fe9565b915061107d83610fe9565b92508261108d5761108c6110c7565b5b828206905092915050565b7f4e487b7100000000000000000000000000000000000000000000000000000000600052601160045260246000fd5b7f4e487b7100000000000000000000000000000000000000000000000000000000600052601260045260246000fd5b7f4e487b7100000000000000000000000000000000000000000000000000000000600052602260045260246000fd5b7f4e487b7100000000000000000000000000000000000000000000000000000000600052604160045260246000fd5b6000601f19601f8301169050919050565b61116e81610fb7565b811461117957600080fd5b5056fea264697066735822122018bc17f3279bb5aa2b536a8ab7050066bc4cb1fa6611ab19b91daed82b559bc064736f6c63430008000033",
  "linkReferences": {},
  "deployedLinkReferences": {}
}